:020000040800F2
:1000000000800020B9020008C1020008C5020008F3
:10001000390300083D0300088503000800000000C4
:10002000000000000000000000000000CD030008F8
:10003000D103000800000000D5030008D903000820
:10004000E9030008E9030008E9030008E9030008E0
:10005000E9030008E9030008E9030008E9030008D0
:10006000E9030008E9030008E9030008E9030008C0
:10007000E9030008E9030008E9030008E9030008B0
:10008000E9030008E9030008E9030008E9030008A0
:10009000E9030008E9030008E9030008E903000890
:1000A000E9030008E9030008E9030008E903000880
:1000B0005D0D0008E9030008E9030008E9030008F2
:1000C000E90300082D0D0008E9030008E903000812
:1000D000E9030008E9030008E9030008E903000850
:1000E000E9030008E9030008E9030008E903000840
:1000F000E9030008E9030008E9030008E903000830
:10010000000000000000000000000000E9030008FB
:10011000E9030008E9030008E9030008E90300080F
:10012000E9030008E9030008E9030008E9030008FF
:10013000E9030008E90300080000000000000000D7
:10014000E9030008E9030008E903000800000000D3
:10015000000000000000000000000000000000009F
:100160000000000000000000E9030008E9030008A7
:10017000E90300080000000000000000000000008B
:1001800000000000E903000800B583B000F092FA17
:10019000384B394A1360394A136039490CE00A6810
:1001A0004B6801F10C04886803E01168196004339E
:1001B00004329842F9D82146324B9942EFD32E4B64
:1001C0001A68314B9A4204D12C4B1A682F4B9A4231
:1001D00000D0FEE7274B2E4A13602E4A13602E4BA9
:1001E0000AE0194651F8082B5B6802E00020106015
:1001F00004329A42FAD30B46284A9342F1D3244B55
:100200001B6813B9234B1B6803B1FEE700F05EFACD
:10021000694601A800F08AF9214C224B1C1BA4104E
:10022000002504E01E4B53F8253098470135AC42B9
:10023000F8DC1D4C1D4B1C1BA410002504E01A4BC0
:1002400053F8253098470135AC42F8DC0099019805
:1002500000F0CCFD0546164C164B1C1BA41004E008
:10026000013C134B53F824309847002CF8DC284607
:1002700000F0F8F8BABADECA0000002080000020C2
:10028000EC030008040400087856341232547698BF
:100290008400002054040020040400081404000812
:1002A00014040008140400081404000814040008CE
:1002B000140400081404000808B5FFF765FF00BF28
:1002C00000BEFEE71EF0040F0CBFEFF30880EFF353
:1002D00009807146414A10472DE9F04182B0044639
:1002E0008846134B5E6B9F6B9D6A1B6B13F0020F6E
:1002F0000DD00F4BDB6A002B09DA4BF6AB6100F037
:1003000061FA20B14FF00042094BDA620CE0094873
:1003100000F07CF9CDF800803B4632462946204665
:1003200000F0D8F900BEFEE702B0BDE8F08100BFE2
:1003300000ED00E06418000800BEFEE71EF0040FA8
:100340000CBFEFF30880EFF309807146244A104791
:100350002DE9F04182B004468846084B5E6B9F6BE6
:100360009D6A074800F052F9CDF800803B463246BE
:100370002946204600F0AEF900BEFEE700ED00E0A1
:10038000741800081EF0040F0CBFEFF30880EFF3A1
:1003900009807146134A10472DE9F04182B00446A6
:1003A0008846084B5E6B9F6B9D6A074800F02EF9EC
:1003B000CDF800803B4632462946204600F08AF9B7
:1003C00000BEFEE700ED00E08018000800BEFEE77A
:1003D00000BEFEE700BEFEE770470000D90200083D
:0C03E000510300089903000800BEFEE76E
:1003EC002C1A000800000020840000202C1A0008A1
:1003FC0000000010000000108400002058040020B1
:08040C000000001000000010C8
:1004200008B50D4B1B6813B90C4A0B4B1A600A4BED
:100430001A68C31C23F00303134409498B4206D9ED
:1004400000F0F4FC0C2303604FF0FF3008BD0249BC
:100450000B60104608BD00BF880000205804002033
:10046000007C002000B508B9044D00E0044D1824BC
:1004700020462946ABBE0446FEE700BF2600020028
:10048000230002002DE9F04184B0234F0197032699
:10049000039600230293012401AD20462946ABBEFA
:1004A00080461E4BC3F800800197039604230293F5
:1004B00020462946ABBE8046194BC3F80080019701
:1004C00003960823029320462946ABBE0446154BEB
:1004D0001C60B4F1FF3F03D1114B1A68114B1A6035
:1004E000002305E04FF0FF310F4A42F8331001338B
:1004F000132BF7DD0C4B094A12681A6000225A6070
:10050000074909689960DA600649096819615A6102
:1005100004B0BDE8F08100BF3C1700089000002047
:100520008C0000200C01002010010020F0B583B0E9
:1005300005460C46324B00934F2301936F46152618
:1005400030463946ABBE0646002E46D12C4B83F8CA
:100550004F60009AB64630463AE0E8B9294F3F6806
:1005600047FA83F393F90130002B03DB092903D108
:10057000012302E0012300E0002343BB082E2DDC11
:10058000222901D0272901D101328E461E4B43F882
:100590002620013601201AE0BEF1000F05D08E455D
:1005A00015D100201070864611E0164F3F6847FABB
:1005B00083F393F90130002B03DB092903D10123D5
:1005C00002E0012300E000230BB100201070013293
:1005D000137859B20029C0D100E000262EB9084B8B
:1005E00000221A70084A13600136074B002243F8B4
:1005F00026202E602360FFF745FF03B0F0BD00BF4B
:10060000BC00002018000020940000200FB400B5AA
:1006100083B004AB53F8042B01938021064800F00B
:10062000A5FC002803DD0146034800F03FF803B0B5
:100630005DF804EB04B07047B0010020F0B585B060
:1006400006460C46174B1B6883B9174B01930423CE
:1006500002930323039301AF012528463946ABBE1D
:100660000546B5F1FF3F13D00E4B1D600D4B1B68C7
:1006700001930296039401AE052528463146ABBE90
:100680000546B5F1FF3F06D0A54207D0601B07E045
:100690004FF0FF3004E04FF0FF3001E04FF0FF304B
:1006A00005B0F0BD300200203C17000808B5FFF788
:1006B000C5FF08BD08B500F05DF9024B024A9A601B
:1006C00008BD00BF00ED00E00000000808B500F024
:1006D00083F908BDF8B504460D4617461E46264860
:1006E000FFF794FF21682548FFF790FF61682448D1
:1006F000FFF78CFFA1682348FFF788FFE1682248D5
:10070000FFF784FF21692148FFF780FF61692048D6
:10071000FFF77CFFA1691F48FFF778FFE1691E48DA
:10072000FFF774FF1D48FFF771FF29461C48FFF7CC
:100730006DFF1C4CE16A1C48FFF768FF216B1B48EA
:10074000FFF764FFE16B1A48FFF760FF15F0800FB9
:1007500003D039461748FFF759FF15F4004F03D06F
:1007600031461548FFF752FF1448FFF74FFF06992F
:100770001348FFF74BFFF8BD48170008581700084B
:1007800068170008781700088817000898170008ED
:10079000A8170008B8170008C8170008D8170008DD
:1007A000E417000800ED00E0F41700080418000842
:1007B0001418000824180008341800084418000809
:1007C0004C18000838B583691B888B426FD10446EA
:1007D00003684568013B302B6BD8DFE803F0421D0E
:1007E00063635A2C2F2919196A1919191919321901
:1007F000206A19236A356A6A6A6A6A6A6A6A6A6A70
:100800006A6A6A6A6A6A6A6A6A6A6A6A6A19190054
:100810004FF0FF33036045E00023036042E0002314
:1008200003603FE000232B606B60AB60EB6039E05E
:100830000023036036E0AB68036033E0002303600D
:1008400030E0002303602DE0BFF34F8F1A49CA68E0
:1008500002F4E062194B1343CB60BFF34F8F00BF2C
:10086000FDE71749286800F04BFB70B96B6813B9B6
:100870000123236016E0042B02D10223236011E040
:10088000082B02D1032323600CE04FF0FF332360D9
:1008900008E02B68023B012B02D80023036001E033
:1008A000AB680360A3690233A361012038BD002057
:1008B00038BD002038BD00BF00ED00E00400FA059F
:1008C0003C17000882B0002301930093274A136865
:1008D00043F480331360254B1B6803F4003300930B
:1008E000019B01330193009B1BB9019BB3F5A06FE2
:1008F000F1D11E4B1B6813F4003F02D0012300937B
:1009000001E000230093009B012B2CD11222184BF5
:100910001A60A3F580535A685A605A685A605A6838
:1009200042F480625A605A6822F47C125A605A6813
:1009300042F4E8125A601A6842F080721A600B4B57
:100940001B6813F0007FFAD0084B5A6822F00302AC
:100950005A605A6842F002025A60044B5B6803F026
:100960000C03082BF9D102B0704700BF0010024001
:100970000020024008B5144B1A6842F001021A60C8
:100980005968124A0A405A601A6822F0847222F4A6
:1009900080321A601A6822F480221A605A6822F49F
:1009A000FE025A60DA6A22F00F02DA62196B084A14
:1009B0000A401A6300229A60FFF784FF4FF000623A
:1009C000044B9A6008BD00BF001002400CC07FF8C5
:1009D000CCFC00FF00ED00E01D4B5B6803F00C0356
:1009E000042B06D0082B08D01BBB1A4A1A4B1A60DE
:1009F00022E0184A184B1A601EE0154A53685268E4
:100A0000C3F38343023312F4803F05D1134A02FB40
:100A100003F3114A13600FE00D4AD26A02F00F028D
:100A2000511C0C4AB2FBF1F202FB03F30A4A1360B9
:100A300002E0084A084B1A60054B5B68C3F30313D6
:100A4000074AD35CDAB204490B68D3400B607047A5
:100A50000010024000127A001400002000093D003E
:100A60000400002020494B6943F400334B614FF0F0
:100A700090431A6822F440321A601A6842F48032B5
:100A80001A609A8A92B222F4807292B29A821A689A
:100A900022F4406222F00F021A604B6943F4802373
:100AA0004B61124B1A6842F001021A601A6842F058
:100AB00004021A601A6842F010021A601A6842F4BE
:100AC00080121A601A6842F480021A601A6842F0B2
:100AD00080721A601A6822F440721A601A6822F44E
:100AE00040621A60704700BF0010024000040048D6
:100AF00082B0002301933C49CB6943F00103CB61F1
:100B00004FF080431A8892B222F0600292B21A80AB
:100B10001A8892B222F0100292B21A801A8892B207
:100B200022F0020292B21A80304ADA62DA6842F0A7
:100B30000102DA604FF080502D4A10601A8892B29C
:100B400042F001021A808B6943F480238B614B6968
:100B500043F400334B614FF090431A6822F4404253
:100B60001A601A6842F400421A601A6A22F070424F
:100B70001A621A6A02431A621E4B4FF47A721A857D
:100B800040F29F52DA629A6942F060029A619A6971
:100B900042F008029A619A6922F003029A619A6906
:100BA00001921A8892B242F080021A801A6A42F0C8
:100BB00001021A625A6942F001025A611A6902F08E
:100BC00001021A615A6C42F400425A64DA6842F037
:100BD0000102DA6028225A631A8892B242F00102B6
:100BE0001A8002B0704700BF001002404019010097
:100BF00000E100E0004801401B4B1A6B42F4403218
:100C00001A63DA6942F40032DA615A6942F4003256
:100C10005A614FF090431A6822F030021A601A6845
:100C200042F020021A601A6822F0C0021A601A68A4
:100C300042F080021A601A6A22F470621A621A6A1A
:100C400042F4E0621A621A6A22F470421A621A6A64
:100C500042F4E0421A62054B40F2A1129A811A68EE
:100C600042F00D021A60704700100240004400403C
:100C70002B4B5A6942F480225A61DA6942F004022D
:100C8000DA61284B9A8892B242F030029A809A68D0
:100C900042F470629A60DA6822F47062DA601A686C
:100CA00022F470621A601A6842F4A0621A60DA686C
:100CB00022F47042DA601A6822F470421A601A68EC
:100CC00022F440521A601A6842F400521A601A6AFA
:100CD00022F070621A621A6A42F000721A62124BB3
:100CE00048221A859A6922F003029A619A6942F0B1
:100CF00001029A619A6922F0F0029A611A6A42F03E
:100D00000A021A629A6922F00C029A611A6A42F087
:100D100001021A621A8892B242F001021A807047E8
:100D2000001002400004004800080040094B9B6985
:100D300013F0080F03D00022074B1A707047054BC1
:100D40009B6913F0040F03D0034A13780133137027
:100D5000704700BF00580040440200204FF080431D
:100D60001B6913F0010F34D04FF08042136923F058
:100D700001031361174A13780133DBB213700A2B96
:100D800006D10022134B1A70134A137801331370E3
:100D9000114B1B780A2B06D100220F4B1A700F4AF9
:100DA0001378013313700D4B1B78052B02D10121F1
:100DB0000B4A11700A2B0CD10022084B1A70094AF9
:100DC000138801331380084A938A9BB283F001038E
:100DD0009382704747040020500400204D040020F7
:100DE000340200204A0400200004004808B5FFF740
:100DF00039FEFFF701FFFFF77BFEFFF739FF0A4AD5
:100E0000938A9BB223F004039BB29382938A9BB292
:100E100023F001039BB29382938A9BB223F00203D7
:100E20009BB29382FEE700BF00040048014B1868A4
:100E3000704700BF7C00002070B5CD1C25F0030575
:100E400008350C2D38BF0C25002D064603DA0C237F
:100E50003360002070BDA942F9D81F4B1C681A46A8
:100E60002146A1B10B685B1B0ED40B2B03D90B6081
:100E7000CC18CD501EE08C420DBF63684B68636098
:100E8000136018BF0C4615E00C464968E9E7134C9F
:100E900023681BB9304600F023F82060294630460D
:100EA00000F01EF8431CD2D0C41C24F00304A0425E
:100EB0000AD1256004F10B00231D20F00700C31A9E
:100EC00009D05A42E25070BD211A304600F008F8AD
:100ED0000130EED1BBE770BD3C020020380200209B
:100EE00038B5064C0023054608462360FFF798FAFC
:100EF000431C02D1236803B12B6038BD400200209F
:100F000010F8012B11F8013B012A28BF9A42F7D0B3
:100F1000D01A704730B5141E05469BB0184604DA47
:100F20008B232B604FF0FF301DE04FF40273ADF8C0
:100F30000C3014BF04F1FF332346029305934FF6A0
:100F4000FF7300910491ADF80E3002461E9B694676
:100F5000284600F0B9F8431CBCBF8B232B6014B1AA
:100F6000009B00221A701BB030BD000007B5009333
:100F700013460A46014603480068FFF7CBFF03B05B
:100F80005DF804FB7C00002030B500293ED051F80C
:100F9000042C0B1F1E49002AB8BF9B180A680C4678
:100FA00012B95A600B6030BD9A420ED919685818B0
:100FB000824204BF106852685A6004BF0918196061
:100FC000236030BD994203D80A4651680029F9D1FF
:100FD000146815199D420AD11B682344D018814218
:100FE000136013D10868034413604B680DE002D905
:100FF0000C23036030BD18681C18A14204BF0C68A4
:101000004968596004BF00191860536030BD00BFC3
:101010003C0200202DE9F0478E689E4282460C4635
:10102000914698463ED88A8912F4906F3AD0256846
:1010300009696F1A6569022305EB450595FBF3F510
:101040007B1C43449D4238BF1D4653050FD529469E
:10105000FFF7F2FE064698B13A46216900F018FB08
:10106000A38923F4906343F08003A38113E02A460D
:1010700000F034FB064670B921695046FFF784FF43
:101080000C23CAF80030A38943F04003A3814FF03A
:10109000FF30BDE8F087266165613E44ED1B2660A8
:1010A000A5604646464528BF464632464946206822
:1010B00000F0F9FAA3689B1BA36023681E44266016
:1010C0000020BDE8F08700002DE9F04F9DB080467C
:1010D00003938B891C060D4616460DD50B695BB92B
:1010E0004021FFF7A9FE2860286118B90C23C8F831
:1010F0000030CDE040236B610023099320238DF85D
:101100002930DFF89CB130238DF82A3037463C4631
:1011100014F8013B1BB9B7EB060910D003E0252BEF
:10112000F9D02746F3E74B46324629464046FFF7BB
:1011300071FF013000F0A780099B4B4409933B7875
:10114000002B00F0A08000234FF0FF3204930793A0
:10115000059206938DF853301A93012605222178C3
:101160004E4800F045FA671C049B38B14B4A801A80
:1011700006FA00F0184304903C46EFE7D90644BF56
:1011800020228DF853201A0744BF2B228DF85320BC
:1011900022782A2A03D0079A00210A200BE0039A1A
:1011A000111D12680391002A10DA524243F0020026
:1011B000079204900BE0274601343B78303B092B23
:1011C00003D800FB02320121F5E701B107923B7819
:1011D0002E2B1ED17B782A2B0AD1039B1A1D1B684C
:1011E0000392002BB8BF4FF0FF330237059310E096
:1011F00000230593781C19460A24074601303A78E3
:10120000303A092A03D804FB01210123F5E703B191
:10121000059103223978224800F0EAF940B14023D1
:10122000CBEB000003FA00F0049B18430490013755
:1012300039781C488DF8281006227E1C00F0D8F959
:1012400088B1194B33B9039B073323F007030833E5
:10125000039314E003AB00932A46144B04A94046C1
:10126000AFF3008007E003AB00932A460F4B04A9BD
:10127000404600F093F8B0F1FF3F824603D0099B4F
:101280005344099342E7AB895B0601D4099801E016
:101290004FF0FF301DB0BDE8F08F00BFF619000819
:1012A000FC190008001A00080000000015100008D2
:1012B0002DE9F04791461F460A698B68DDF82080CA
:1012C0009342B8BF1346C9F8003091F84320064650
:1012D0000C4612B10133C9F800302368990642BFA9
:1012E000D9F800300233C9F80030256815F006053A
:1012F00010D104F1190A07E001235246394630465D
:10130000C04701301AD00135E368D9F800209B1A94
:101310009D42F1DB94F843302268003318BF01236B
:1013200092060FD5E1185A1C302081F84300224460
:1013300094F8451082F84310023303E04FF0FF3079
:10134000BDE8F08704F1430239463046C04701301A
:10135000F4D02268D9F80050E36802F00602042AAB
:1013600008BF5D1B2269A3680CBF25EAE57500254F
:101370009342C4BF9B1AED184FF000091A344D4533
:1013800009D00123224639463046C0470130D5D026
:1013900009F10109F3E70020BDE8F0872DE9F043EA
:1013A00017460A7E85B06E2A984606460C460C9B68
:1013B00001F1430E00F0AE8011D8632A22D009D883
:1013C000002A00F0BB80582A40F0CA8081F84520EE
:1013D000834955E0642A1ED0692A1CD0C0E0732AD4
:1013E00000F0B08009D86F2A2ED0702A40F0B88063
:1013F0000A6842F020020A603EE0752A24D0782A6A
:101400003AD0ADE01A6801F14205111D1960136868
:1014100084F84230A8E021681A6811F0800F02D0E9
:10142000111D196008E011F0400F02F1040119606C
:1014300002D0B2F9003000E01368002B3CDA2D2214
:101440005B4284F8432037E021681A6811F0800F6E
:1014500002D0111D196007E011F0400F02F10401E4
:10146000196001D0138800E01368227E5C496F2A5E
:1014700014BF0A2208221BE078225A4984F845202A
:101480002268186812F0800F00F104051D6003D176
:10149000550601D5038800E00368D00744BF42F039
:1014A000200222601BB9226822F020022260102252
:1014B000002084F8430001E049490A226568A560DC
:1014C000002D08DB206820F0040020602BB9002DDF
:1014D0007DD175460CE0002B79D07546B3FBF2F058
:1014E00002FB1033CB5C05F8013D03460028F5D123
:1014F000082A0BD12368DA0708D5236962689A4263
:10150000DEBF302305F8013C05F1FF35C5EB0E03C6
:1015100023612EE008681A68496910F0800F03D033
:10152000101D1860136808E010F0400F02F104006D
:101530001860136801D0198000E01960002323614E
:10154000754616E01A68111D196015686268002159
:10155000284600F04DF808B1401B6060636804E065
:1015600004F1420584F8422001232361002384F81A
:101570004330CDF800803B4603AA21463046FFF7B2
:1015800097FE013002D14FF0FF3026E023692A4652
:1015900039463046C0470130F5D023689B0710D547
:1015A000002504F1190907E001234A46394630466F
:1015B000C0470130E7D00135E368039A9B1A9D428A
:1015C000F2DBE068039B9842B8BF184605E00B7851
:1015D00084F8423004F142058AE705B0BDE8F083A3
:1015E000071A0008181A0008000000000000000098
:1015F00001F0FF01102A2BDB10F0070F08D010F8C4
:10160000013B013A8B422DD010F0070F42B3F6D1C7
:10161000F0B441EA012141EA014122F007047FF0E0
:1016200000070023F0E80256083C85EA010586EA37
:10163000010685FA47F5A3FA87F586FA47F6A5FA73
:1016400087F68EB9EED1F0BC01F0FF0102F007027F
:1016500032B110F8013B013A83EA010313B1F8D12A
:101660000020704701387047002D06BF354603380B
:10167000073815F0010F07D1013015F4807F02BF44
:10168000013015F4C03F0130F0BC0138704700BF95
:1016900010B5431E0A44914204D011F8014B03F8DF
:1016A000014FF8E710BD884210B501EB020301D8E5
:1016B000421E0BE09842FBD28118D21AD34204D0CA
:1016C00013F8014D01F8014DF8E710BD994204D01F
:1016D00011F8014B02F8014FF8E710BDF8B50746C5
:1016E00015460E4621B91146BDE8F840FFF7A4BBE8
:1016F0001AB9FFF749FC2846F8BD00F015F88542F5
:101700000ED929463846FFF797FB044650B13146BB
:101710002A46FFF7BDFF31463846FFF735FC01E0AA
:101720003046F8BD2046F8BD51F8040C0028BEBF75
:10173000091851F8043CC018043870473A74740012
:101740002F746D7000000000537461636B2066722B
:10175000616D653A0A000000205230203D202025AE
:101760003038580A00000000205231203D2020254A
:101770003038580A00000000205232203D20202539
:101780003038580A00000000205233203D20202528
:101790003038580A0000000020523132203D202508
:1017A0003038580A00000000204C52203D202025EF
:1017B0003038580A00000000205043203D202025EA
:1017C0003038580A0000000020505352203D202598
:1017D0003038580A000000004653522F4641523A12
:1017E0000A0000002043465352203D202025303877
:1017F000580A00002048465352203D20202530380A
:10180000580A00002044465352203D2020253038FD
:10181000580A00002041465352203D2020253038F0
:10182000580A0000204D4D464152203D20253038B9
:10183000580A00002042464152203D2020253038E1
:10184000580A00004D6973630A000000204C522FB3
:101850004558435F52455455524E3D202530385827
:101860000A0000005B486172644661756C745D0A31
:10187000000000005B4275734661756C745D0A0080
:101880005B55736167654661756C745D0A000000A5
:101890000020202020202020202028282828282040
:1018A0002020202020202020202020202020202038
:1018B00020881010101010101010101010101010A0
:1018C0001004040404040404040404101010101090
:1018D000101041414141414101010101010101015A
:1018E00001010101010101010101010110101010AC
:1018F000101042424242424202020202020202022C
:10190000020202020202020202020202101010107F
:1019100020000000000000000000000000000000A7
:1019200000000000000000000000000000000000B7
:1019300000000000000000000000000000000000A7
:101940000000000000000000000000000000000097
:101950000000000000000000000000000000000087
:101960000000000000000000000000000000000077
:101970000000000000000000000000000000000067
:101980000000000000000000000000000000000057
:101990000000000000000000000000000000000047
:1019A0000000000000000000000000000000000037
:1019B0000000000000000000000000000000000027
:1019C0000000000000000000000000000000000017
:1019D0000000000000000000000000000000000007
:1019E00000000000000000000000000000000000F7
:1019F000000000004300232D302B2000686C4C00B9
:101A000065666745464700303132333435363738FE
:101A1000394142434445460030313233343536375C
:091A2000383961626364656600F7
:101A2C00785634120000000000000000010203048C
:101A3C000607080900A24A049018000800000000DC
:101A4C0094190008B4190008D4190008000000000B
:101A5C00000000000000000000000000F419000865
:101A6C00000000000000000000000000000000006A
:101A7C00000000000000000000000000000000005A
:101A8C00000000000000000000000000000000004A
:101A9C000000000000000000000000001C000020FE
:041AAC0032547698A2
:040000050800018965
:00000001FF
